{
  "contractName": "Election",
  "abi": [
    {
      "constant": true,
      "inputs": [
        {
          "name": "",
          "type": "uint256"
        }
      ],
      "name": "candidates",
      "outputs": [
        {
          "name": "id",
          "type": "uint256"
        },
        {
          "name": "name",
          "type": "string"
        },
        {
          "name": "partyName",
          "type": "string"
        },
        {
          "name": "voteCount",
          "type": "uint256"
        },
        {
          "name": "parcetange",
          "type": "uint256"
        },
        {
          "name": "marginWL",
          "type": "uint256"
        },
        {
          "name": "winloss",
          "type": "string"
        }
      ],
      "payable": false,
      "stateMutability": "view",
      "type": "function"
    },
    {
      "constant": true,
      "inputs": [
        {
          "name": "",
          "type": "address"
        }
      ],
      "name": "VoterData",
      "outputs": [
        {
          "name": "voterID",
          "type": "uint256"
        },
        {
          "name": "voterAddress",
          "type": "address"
        },
        {
          "name": "voterElectionId",
          "type": "string"
        },
        {
          "name": "voterFastName",
          "type": "string"
        },
        {
          "name": "voterLastName",
          "type": "string"
        },
        {
          "name": "voterGender",
          "type": "uint256"
        },
        {
          "name": "voterVoted",
          "type": "bool"
        }
      ],
      "payable": false,
      "stateMutability": "view",
      "type": "function"
    },
    {
      "inputs": [],
      "payable": false,
      "stateMutability": "nonpayable",
      "type": "constructor"
    },
    {
      "anonymous": false,
      "inputs": [
        {
          "indexed": false,
          "name": "_candidateId",
          "type": "uint256"
        },
        {
          "indexed": false,
          "name": "_candidateName",
          "type": "string"
        },
        {
          "indexed": false,
          "name": "_partyName",
          "type": "string"
        }
      ],
      "name": "addCandidateEvent",
      "type": "event"
    },
    {
      "anonymous": false,
      "inputs": [
        {
          "indexed": false,
          "name": "_voterId",
          "type": "uint256"
        },
        {
          "indexed": false,
          "name": "_voterAddress",
          "type": "address"
        },
        {
          "indexed": false,
          "name": "_voterElectionId",
          "type": "string"
        },
        {
          "indexed": false,
          "name": "_voterFastName",
          "type": "string"
        },
        {
          "indexed": false,
          "name": "_voterLastName",
          "type": "string"
        },
        {
          "indexed": false,
          "name": "_voterGender",
          "type": "uint256"
        },
        {
          "indexed": false,
          "name": "_voterVoted",
          "type": "bool"
        }
      ],
      "name": "addVoterEvent",
      "type": "event"
    },
    {
      "anonymous": false,
      "inputs": [
        {
          "indexed": false,
          "name": "_errorLog",
          "type": "string"
        }
      ],
      "name": "errorLog",
      "type": "event"
    },
    {
      "anonymous": false,
      "inputs": [
        {
          "indexed": false,
          "name": "_voterStatus",
          "type": "string"
        }
      ],
      "name": "votingLog",
      "type": "event"
    },
    {
      "anonymous": false,
      "inputs": [
        {
          "indexed": false,
          "name": "_winName",
          "type": "string"
        }
      ],
      "name": "winerName",
      "type": "event"
    },
    {
      "anonymous": false,
      "inputs": [
        {
          "indexed": false,
          "name": "_id",
          "type": "uint256"
        },
        {
          "indexed": false,
          "name": "_name",
          "type": "string"
        },
        {
          "indexed": false,
          "name": "_partyName",
          "type": "string"
        },
        {
          "indexed": false,
          "name": "_voteCount",
          "type": "uint256"
        },
        {
          "indexed": false,
          "name": "_parcetange",
          "type": "uint256"
        },
        {
          "indexed": false,
          "name": "marginWL",
          "type": "uint256"
        },
        {
          "indexed": false,
          "name": "_winloss",
          "type": "string"
        }
      ],
      "name": "winnerData",
      "type": "event"
    },
    {
      "anonymous": false,
      "inputs": [
        {
          "indexed": false,
          "name": "_candidateId",
          "type": "uint256"
        },
        {
          "indexed": false,
          "name": "_voterAddress",
          "type": "address"
        }
      ],
      "name": "uservoteLog",
      "type": "event"
    },
    {
      "constant": false,
      "inputs": [
        {
          "name": "_name",
          "type": "string"
        },
        {
          "name": "_partyName",
          "type": "string"
        }
      ],
      "name": "addCandidate",
      "outputs": [],
      "payable": false,
      "stateMutability": "nonpayable",
      "type": "function"
    },
    {
      "constant": false,
      "inputs": [
        {
          "name": "_Address",
          "type": "address"
        },
        {
          "name": "_voterElectionId",
          "type": "string"
        },
        {
          "name": "_FName",
          "type": "string"
        },
        {
          "name": "_LName",
          "type": "string"
        },
        {
          "name": "_Gender",
          "type": "uint256"
        }
      ],
      "name": "addVoterData",
      "outputs": [],
      "payable": false,
      "stateMutability": "nonpayable",
      "type": "function"
    },
    {
      "constant": false,
      "inputs": [
        {
          "name": "_candidateId",
          "type": "uint256"
        },
        {
          "name": "_voterAddress",
          "type": "address"
        }
      ],
      "name": "vote",
      "outputs": [],
      "payable": false,
      "stateMutability": "nonpayable",
      "type": "function"
    },
    {
      "constant": false,
      "inputs": [],
      "name": "winer",
      "outputs": [],
      "payable": false,
      "stateMutability": "nonpayable",
      "type": "function"
    }
  ],
  "bytecode": "0x6080604052600060035560006004553480156200001b57600080fd5b50620000a16040805190810160405280601081526020017f4561737465726e20626c756562697264000000000000000000000000000000008152506040805190810160405280600781526020017f4561737465726e0000000000000000000000000000000000000000000000000081525062000236640100000000026401000000009004565b620001266040805190810160405280600781526020017f506967656f6e73000000000000000000000000000000000000000000000000008152506040805190810160405280600781526020017f506967656f6e730000000000000000000000000000000000000000000000000081525062000236640100000000026401000000009004565b620001ab6040805190810160405280600681526020017f506172726f7400000000000000000000000000000000000000000000000000008152506040805190810160405280600681526020017f506172726f74000000000000000000000000000000000000000000000000000081525062000236640100000000026401000000009004565b620002306040805190810160405280600b81526020017f416e6772792042697264730000000000000000000000000000000000000000008152506040805190810160405280600a81526020017f416e67727942697264730000000000000000000000000000000000000000000081525062000236640100000000026401000000009004565b6200051e565b60026000815480929190600101919050555060e06040519081016040528060025481526020018381526020018281526020016000815260200160008152602001600081526020016040805190810160405280600181526020017f4e000000000000000000000000000000000000000000000000000000000000008152508152506000806002548152602001908152602001600020600082015181600001556020820151816001019080519060200190620002f29291906200046f565b506040820151816002019080519060200190620003119291906200046f565b50606082015181600301556080820151816004015560a0820151816005015560c08201518160060190805190602001906200034e9291906200046f565b509050507f03b82139356c093a035011ce3763c5dac393ceb3e2ccdb51303803932dd6f7486002548383604051808481526020018060200180602001838103835285818151815260200191508051906020019080838360005b83811015620003c4578082015181840152602081019050620003a7565b50505050905090810190601f168015620003f25780820380516001836020036101000a031916815260200191505b50838103825284818151815260200191508051906020019080838360005b838110156200042d57808201518184015260208101905062000410565b50505050905090810190601f1680156200045b5780820380516001836020036101000a031916815260200191505b509550505050505060405180910390a15050565b828054600181600116156101000203166002900490600052602060002090601f016020900481019282601f10620004b257805160ff1916838001178555620004e3565b82800160010185558215620004e3579182015b82811115620004e2578251825591602001919060010190620004c5565b5b509050620004f29190620004f6565b5090565b6200051b91905b8082111562000517576000816000905550600101620004fd565b5090565b90565b611b53806200052e6000396000f300608060405260043610610078576000357c0100000000000000000000000000000000000000000000000000000000900463ffffffff16806302d947ef1461007d57806326541b56146100ca5780633477ee2e14610179578063d426b5d414610313578063e17fbb401461032a578063e44e905614610449575b600080fd5b34801561008957600080fd5b506100c860048036038101908080359060200190929190803573ffffffffffffffffffffffffffffffffffffffff169060200190929190505050610629565b005b3480156100d657600080fd5b50610177600480360381019080803590602001908201803590602001908080601f0160208091040260200160405190810160405280939291908181526020018383808284378201915050505050509192919290803590602001908201803590602001908080601f0160208091040260200160405190810160405280939291908181526020018383808284378201915050505050509192919290505050610937565b005b34801561018557600080fd5b506101a460048036038101908080359060200190929190505050610b64565b6040518088815260200180602001806020018781526020018681526020018581526020018060200184810384528a818151815260200191508051906020019080838360005b838110156102045780820151818401526020810190506101e9565b50505050905090810190601f1680156102315780820380516001836020036101000a031916815260200191505b50848103835289818151815260200191508051906020019080838360005b8381101561026a57808201518184015260208101905061024f565b50505050905090810190601f1680156102975780820380516001836020036101000a031916815260200191505b50848103825285818151815260200191508051906020019080838360005b838110156102d05780820151818401526020810190506102b5565b50505050905090810190601f1680156102fd5780820380516001836020036101000a031916815260200191505b509a505050505050505050505060405180910390f35b34801561031f57600080fd5b50610328610d6e565b005b34801561033657600080fd5b50610447600480360381019080803573ffffffffffffffffffffffffffffffffffffffff169060200190929190803590602001908201803590602001908080601f0160208091040260200160405190810160405280939291908181526020018383808284378201915050505050509192919290803590602001908201803590602001908080601f0160208091040260200160405190810160405280939291908181526020018383808284378201915050505050509192919290803590602001908201803590602001908080601f016020809104026020016040519081016040528093929190818152602001838380828437820191505050505050919291929080359060200190929190505050610ea0565b005b34801561045557600080fd5b5061048a600480360381019080803573ffffffffffffffffffffffffffffffffffffffff1690602001909291905050506112e8565b604051808881526020018773ffffffffffffffffffffffffffffffffffffffff1673ffffffffffffffffffffffffffffffffffffffff16815260200180602001806020018060200186815260200185151515158152602001848103845289818151815260200191508051906020019080838360005b8381101561051a5780820151818401526020810190506104ff565b50505050905090810190601f1680156105475780820380516001836020036101000a031916815260200191505b50848103835288818151815260200191508051906020019080838360005b83811015610580578082015181840152602081019050610565565b50505050905090810190601f1680156105ad5780820380516001836020036101000a031916815260200191505b50848103825287818151815260200191508051906020019080838360005b838110156105e65780820151818401526020810190506105cb565b50505050905090810190601f1680156106135780820380516001836020036101000a031916815260200191505b509a505050505050505050505060405180910390f35b808073ffffffffffffffffffffffffffffffffffffffff16600160008373ffffffffffffffffffffffffffffffffffffffff1673ffffffffffffffffffffffffffffffffffffffff16815260200190815260200160002060010160009054906101000a900473ffffffffffffffffffffffffffffffffffffffff1673ffffffffffffffffffffffffffffffffffffffff1614156108a35781600160008273ffffffffffffffffffffffffffffffffffffffff1673ffffffffffffffffffffffffffffffffffffffff16815260200190815260200160002060060160009054906101000a900460ff16151561083457600160036000828254019250508190555060008411801561073a57506002548411155b151561074557600080fd5b60018060008573ffffffffffffffffffffffffffffffffffffffff1673ffffffffffffffffffffffffffffffffffffffff16815260200190815260200160002060060160006101000a81548160ff021916908315150217905550600080858152602001908152602001600020600301600081548092919060010191905055507fc2a2037a0eb96344c166ac849a43f54570c300560b9594c90e255cd04ba67c218484604051808381526020018273ffffffffffffffffffffffffffffffffffffffff1673ffffffffffffffffffffffffffffffffffffffff1681526020019250505060405180910390a161089d565b7f58759d6046798207ac630c65ba9cd028f88bcd0b3e5c428707da24676ad718ff60405180806020018281038252601c8152602001807f596f752068616420766f74656420666f7220746869732074696d65210000000081525060200191505060405180910390a15b50610932565b7f58759d6046798207ac630c65ba9cd028f88bcd0b3e5c428707da24676ad718ff6040518080602001828103825260218152602001807f596f752068617665206e6f7420726567697374657220666f7220766f74696e6781526020017f210000000000000000000000000000000000000000000000000000000000000081525060400191505060405180910390a15b505050565b60026000815480929190600101919050555060e06040519081016040528060025481526020018381526020018281526020016000815260200160008152602001600081526020016040805190810160405280600181526020017f4e0000000000000000000000000000000000000000000000000000000000000081525081525060008060025481526020019081526020016000206000820151816000015560208201518160010190805190602001906109f1929190611a02565b506040820151816002019080519060200190610a0e929190611a02565b50606082015181600301556080820151816004015560a0820151816005015560c0820151816006019080519060200190610a49929190611a02565b509050507f03b82139356c093a035011ce3763c5dac393ceb3e2ccdb51303803932dd6f7486002548383604051808481526020018060200180602001838103835285818151815260200191508051906020019080838360005b83811015610abd578082015181840152602081019050610aa2565b50505050905090810190601f168015610aea5780820380516001836020036101000a031916815260200191505b50838103825284818151815260200191508051906020019080838360005b83811015610b23578082015181840152602081019050610b08565b50505050905090810190601f168015610b505780820380516001836020036101000a031916815260200191505b509550505050505060405180910390a15050565b6000602052806000526040600020600091509050806000015490806001018054600181600116156101000203166002900480601f016020809104026020016040519081016040528092919081815260200182805460018160011615610100020316600290048015610c165780601f10610beb57610100808354040283529160200191610c16565b820191906000526020600020905b815481529060010190602001808311610bf957829003601f168201915b505050505090806002018054600181600116156101000203166002900480601f016020809104026020016040519081016040528092919081815260200182805460018160011615610100020316600290048015610cb45780601f10610c8957610100808354040283529160200191610cb4565b820191906000526020600020905b815481529060010190602001808311610c9757829003601f168201915b505050505090806003015490806004015490806005015490806006018054600181600116156101000203166002900480601f016020809104026020016040519081016040528092919081815260200182805460018160011615610100020316600290048015610d645780601f10610d3957610100808354040283529160200191610d64565b820191906000526020600020905b815481529060010190602001808311610d4757829003601f168201915b5050505050905087565b6000806000806000925060009150600090505b60025481111515610e295760035460646000808481526020019081526020016000206003015402811515610db157fe5b046000808381526020019081526020016000206004018190555082600080838152602001908152602001600020600301541115610e1c576000808281526020019081526020016000206003015492506000808281526020019081526020016000206004015491508093505b8080600101915050610d81565b610e328261151f565b7fc3f85d3b0eb02cbfe0e9081bdd2715ca86ca963472d5b4a7b618139ff3da9eec6040518080602001828103825260058152602001807f77696e657200000000000000000000000000000000000000000000000000000081525060200191505060405180910390a150505050565b8473ffffffffffffffffffffffffffffffffffffffff16600160008773ffffffffffffffffffffffffffffffffffffffff1673ffffffffffffffffffffffffffffffffffffffff16815260200190815260200160002060010160009054906101000a900473ffffffffffffffffffffffffffffffffffffffff1673ffffffffffffffffffffffffffffffffffffffff161415610fa3577fdf8dca245d7ff96a83e9b8205a2ad0be04df6e3bbda74669314fdc76657f0e8260405180806020018281038252600d8152602001807f526567697374657220757365720000000000000000000000000000000000000081525060200191505060405180910390a16112e1565b600160046000828254019250508190555060e06040519081016040528060045481526020018673ffffffffffffffffffffffffffffffffffffffff16815260200185815260200184815260200183815260200182815260200160001515815250600160008773ffffffffffffffffffffffffffffffffffffffff1673ffffffffffffffffffffffffffffffffffffffff1681526020019081526020016000206000820151816000015560208201518160010160006101000a81548173ffffffffffffffffffffffffffffffffffffffff021916908373ffffffffffffffffffffffffffffffffffffffff16021790555060408201518160020190805190602001906110af929190611a02565b5060608201518160030190805190602001906110cc929190611a02565b5060808201518160040190805190602001906110e9929190611a02565b5060a0820151816005015560c08201518160060160006101000a81548160ff0219169083151502179055509050507feab1b1f4bc5161db5ee60e8f94c46bb8d50ff1010b3971ff3f3daf6f809dc2bb60045486868686866000604051808881526020018773ffffffffffffffffffffffffffffffffffffffff1673ffffffffffffffffffffffffffffffffffffffff16815260200180602001806020018060200186815260200185151515158152602001848103845289818151815260200191508051906020019080838360005b838110156111d25780820151818401526020810190506111b7565b50505050905090810190601f1680156111ff5780820380516001836020036101000a031916815260200191505b50848103835288818151815260200191508051906020019080838360005b8381101561123857808201518184015260208101905061121d565b50505050905090810190601f1680156112655780820380516001836020036101000a031916815260200191505b50848103825287818151815260200191508051906020019080838360005b8381101561129e578082015181840152602081019050611283565b50505050905090810190601f1680156112cb5780820380516001836020036101000a031916815260200191505b509a505050505050505050505060405180910390a15b5050505050565b60016020528060005260406000206000915090508060000154908060010160009054906101000a900473ffffffffffffffffffffffffffffffffffffffff1690806002018054600181600116156101000203166002900480601f0160208091040260200160405190810160405280929190818152602001828054600181600116156101000203166002900480156113c05780601f10611395576101008083540402835291602001916113c0565b820191906000526020600020905b8154815290600101906020018083116113a357829003601f168201915b505050505090806003018054600181600116156101000203166002900480601f01602080910402602001604051908101604052809291908181526020018280546001816001161561010002031660029004801561145e5780601f106114335761010080835404028352916020019161145e565b820191906000526020600020905b81548152906001019060200180831161144157829003601f168201915b505050505090806004018054600181600116156101000203166002900480601f0160208091040260200160405190810160405280929190818152602001828054600181600116156101000203166002900480156114fc5780601f106114d1576101008083540402835291602001916114fc565b820191906000526020600020905b8154815290600101906020018083116114df57829003601f168201915b5050505050908060050154908060060160009054906101000a900460ff16905087565b60008061152b836119af565b9150600090505b600254811115156119aa5760008082815260200190815260200160002060040154831415156115f057600080828152602001908152602001600020600401548303600080838152602001908152602001600020600501819055506040805190810160405280600481526020017f4c6f73730000000000000000000000000000000000000000000000000000000081525060008083815260200190815260200160002060060190805190602001906115ea929190611a82565b50611720565b600182141561168e57600080828152602001908152602001600020600401548303600080838152602001908152602001600020600501819055506040805190810160405280600381526020017f576f6e00000000000000000000000000000000000000000000000000000000008152506000808381526020019081526020016000206006019080519060200190611688929190611a82565b5061171f565b600080828152602001908152602001600020600401548303600080838152602001908152602001600020600501819055506040805190810160405280600381526020017f5469650000000000000000000000000000000000000000000000000000000000815250600080838152602001908152602001600020600601908051906020019061171d929190611a82565b505b5b7fb4ba9c43e3dac0a66a0c77b7f0433a59345922100deb15b73ccc2db00052286a600080838152602001908152602001600020600001546000808481526020019081526020016000206001016000808581526020019081526020016000206002016000808681526020019081526020016000206003015460008087815260200190815260200160002060040154600080888152602001908152602001600020600501546000808981526020019081526020016000206006016040518088815260200180602001806020018781526020018681526020018581526020018060200184810384528a8181546001816001161561010002031660029004815260200191508054600181600116156101000203166002900480156118815780601f1061185657610100808354040283529160200191611881565b820191906000526020600020905b81548152906001019060200180831161186457829003601f168201915b50508481038352898181546001816001161561010002031660029004815260200191508054600181600116156101000203166002900480156119045780601f106118d957610100808354040283529160200191611904565b820191906000526020600020905b8154815290600101906020018083116118e757829003601f168201915b50508481038252858181546001816001161561010002031660029004815260200191508054600181600116156101000203166002900480156119875780601f1061195c57610100808354040283529160200191611987565b820191906000526020600020905b81548152906001019060200180831161196a57829003601f168201915b50509a505050505050505050505060405180910390a18080600101915050611532565b505050565b6000806000809150600090505b600254811115156119f857600080828152602001908152602001600020600401548414156119eb576001820191505b80806001019150506119bc565b8192505050919050565b828054600181600116156101000203166002900490600052602060002090601f016020900481019282601f10611a4357805160ff1916838001178555611a71565b82800160010185558215611a71579182015b82811115611a70578251825591602001919060010190611a55565b5b509050611a7e9190611b02565b5090565b828054600181600116156101000203166002900490600052602060002090601f016020900481019282601f10611ac357805160ff1916838001178555611af1565b82800160010185558215611af1579182015b82811115611af0578251825591602001919060010190611ad5565b5b509050611afe9190611b02565b5090565b611b2491905b80821115611b20576000816000905550600101611b08565b5090565b905600a165627a7a72305820d83fd1116f1626bedf3e9efd42629c621553c3619d6b8cd8141397432763ac100029",
  "source": "pragma solidity >=0.4.20 <0.6.0;\r\n\r\ncontract Election {\r\n\r\n    struct Candidate {\r\n        uint id;\r\n        string name;\r\n        string partyName;\r\n        uint voteCount;\r\n        uint parcetange;\r\n        uint marginWL;\r\n        string winloss;\r\n    }\r\n    struct Voter {\r\n        uint voterID;\r\n        address voterAddress;\r\n        string voterElectionId;\r\n        string voterFastName;\r\n        string voterLastName;\r\n        uint voterGender;\r\n        bool voterVoted;\r\n    }\r\n\r\n    mapping(uint => Candidate)public candidates;\r\n\r\n    mapping(address => Voter) public VoterData;\r\n\r\n    uint candidatesCount;\r\n    uint totalVoteCount=0;\r\n    uint voterCounts=0;\r\n\r\n    event addCandidateEvent(uint _candidateId, string _candidateName, string _partyName);\r\n    event addVoterEvent(uint _voterId, address _voterAddress,string _voterElectionId,string _voterFastName,string _voterLastName, uint _voterGender,bool _voterVoted);\r\n    event errorLog(string _errorLog);\r\n    event votingLog(string _voterStatus);\r\n    event winerName(string _winName);\r\n    event winnerData(uint _id,string _name,string _partyName,uint _voteCount,uint _parcetange,uint marginWL,string _winloss);\r\n    event uservoteLog(uint _candidateId,address _voterAddress);\r\n    modifier checkVoterAddress(address _voterAddress){\r\n        if(VoterData[_voterAddress].voterAddress == _voterAddress){\r\n            _;\r\n        } else {\r\n            emit votingLog(\"You have not register for voting!\");\r\n        }\r\n    }\r\n\r\n    modifier voterVoteStatus(address _voterAddress){\r\n        if(!VoterData[_voterAddress].voterVoted){\r\n            _;\r\n        } else {\r\n            emit votingLog(\"You had voted for this time!\");\r\n        }\r\n    }\r\n\r\n    constructor() public {\r\n         addCandidate(\"Eastern bluebird\",\"Eastern\");\r\n         addCandidate(\"Pigeons\",\"Pigeons\");\r\n         addCandidate(\"Parrot\",\"Parrot\");\r\n         addCandidate(\"Angry Birds\",\"AngryBirds\");\r\n    }\r\n\r\n    function addCandidate(string memory _name,string memory _partyName) public{\r\n        candidatesCount++;\r\n        candidates[candidatesCount] = Candidate(candidatesCount,_name,_partyName,0,0,0,\"N\");\r\n\r\n        emit addCandidateEvent(candidatesCount,_name,_partyName);\r\n    }\r\n\r\n    function addVoterData(address  _Address, string memory _voterElectionId,string memory _FName,string memory _LName, uint _Gender) public {\r\n        if(VoterData[_Address].voterAddress == _Address)\r\n        {\r\n           emit errorLog(\"Register user\");\r\n        } else {\r\n            voterCounts += 1;\r\n            VoterData[_Address] = Voter(voterCounts, _Address,_voterElectionId, _FName, _LName, _Gender, false);\r\n\r\n            emit addVoterEvent(voterCounts, _Address, _voterElectionId, _FName, _LName, _Gender,false);\r\n        }\r\n    }\r\n\r\n    function vote(uint _candidateId,address _voterAddress) public checkVoterAddress(_voterAddress) voterVoteStatus(_voterAddress) {\r\n        totalVoteCount +=1;\r\n        require(_candidateId > 0 && _candidateId <= candidatesCount);\r\n\r\n        VoterData[_voterAddress].voterVoted = true;\r\n        candidates[_candidateId].voteCount++;\r\n        emit uservoteLog(_candidateId,_voterAddress);\r\n    }\r\n\r\n    function winer() public {\r\n      uint winerId;\r\n      uint totalcount=0;\r\n      uint highparcentag=0;\r\n      for(uint i=0; i <= candidatesCount; i++){\r\n          candidates[i].parcetange = (candidates[i].voteCount * 100) / totalVoteCount;\r\n          if(candidates[i].voteCount > totalcount){\r\n                totalcount = candidates[i].voteCount;\r\n                highparcentag = candidates[i].parcetange;\r\n                winerId = i;\r\n          }\r\n      }\r\n      setData(highparcentag);\r\n      //return true;\r\n      emit winerName(\"winer\");\r\n    }\r\n\r\n    function setData(uint highparcent) private {\r\n      uint winerData = Tiecheck(highparcent);\r\n      for(uint i=0; i <= candidatesCount; i++){\r\n      if(highparcent != candidates[i].parcetange ) {\r\n        candidates[i].marginWL = (highparcent - candidates[i].parcetange);\r\n        candidates[i].winloss =\"Loss\";\r\n      } else {\r\n             if(winerData == 1){\r\n                 candidates[i].marginWL = (highparcent - candidates[i].parcetange);\r\n                 candidates[i].winloss = \"Won\";\r\n             }\r\n             else {\r\n               candidates[i].marginWL = (highparcent - candidates[i].parcetange);\r\n               candidates[i].winloss = \"Tie\";\r\n                }\r\n        }\r\n\t\temit winnerData(candidates[i].id,candidates[i].name,candidates[i].partyName,candidates[i].voteCount,candidates[i].parcetange,candidates[i].marginWL,candidates[i].winloss);\r\n      }\r\n    }\r\n    function Tiecheck(uint highparcent) private view returns(uint){\r\n        uint chektie=0;\r\n        for(uint x=0; x <= candidatesCount; x++){\r\n            if(highparcent == candidates[x].parcetange)\r\n            {\r\n                chektie +=1;\r\n            }\r\n        }\r\n        return chektie;\r\n    }\r\n\r\n    function getCondidateById(uint _id) private view returns(string memory,string memory,uint,uint,uint,string memory){\r\n        return (candidates[_id].name,candidates[_id].partyName,candidates[_id].voteCount,candidates[_id].parcetange,candidates[_id].marginWL,candidates[_id].winloss);\r\n    }\r\n\r\n}\r\n",
  "sourcePath": "/home/dev/Desktop/vasudev/BlockChain/BlockChain APP/VotingSystemNew/contracts/Election.sol",
  "compiler": {
    "name": "solc",
    "version": "0.4.24+commit.e67f0147.Emscripten.clang"
  },
  "schemaVersion": "2.0.1",
  "updatedAt": "2018-12-18T11:35:45.280Z"
}